{
  "contractName": "IdentityManagement",
  "abi": [
    {
      "inputs": [],
      "stateMutability": "nonpayable",
      "type": "constructor"
    },
    {
      "inputs": [
        {
          "internalType": "address",
          "name": "",
          "type": "address"
        },
        {
          "internalType": "uint256",
          "name": "",
          "type": "uint256"
        }
      ],
      "name": "DLRequestMap",
      "outputs": [
        {
          "internalType": "string",
          "name": "requestedBy",
          "type": "string"
        },
        {
          "internalType": "string",
          "name": "DL_No",
          "type": "string"
        },
        {
          "internalType": "string",
          "name": "DL_Name",
          "type": "string"
        },
        {
          "internalType": "string",
          "name": "DL_DOB",
          "type": "string"
        },
        {
          "internalType": "string",
          "name": "DL_Address",
          "type": "string"
        },
        {
          "internalType": "uint8",
          "name": "DL_OverAll_Status",
          "type": "uint8"
        }
      ],
      "stateMutability": "view",
      "type": "function",
      "constant": true
    },
    {
      "inputs": [],
      "name": "contractOwner",
      "outputs": [
        {
          "internalType": "address",
          "name": "",
          "type": "address"
        }
      ],
      "stateMutability": "view",
      "type": "function",
      "constant": true
    },
    {
      "inputs": [
        {
          "internalType": "address",
          "name": "",
          "type": "address"
        },
        {
          "internalType": "uint256",
          "name": "",
          "type": "uint256"
        }
      ],
      "name": "userDLMap",
      "outputs": [
        {
          "internalType": "string",
          "name": "DL_No",
          "type": "string"
        },
        {
          "internalType": "string",
          "name": "DL_Name",
          "type": "string"
        },
        {
          "internalType": "string",
          "name": "DL_DOB",
          "type": "string"
        },
        {
          "internalType": "string",
          "name": "DL_Address",
          "type": "string"
        }
      ],
      "stateMutability": "view",
      "type": "function",
      "constant": true
    },
    {
      "inputs": [
        {
          "internalType": "address",
          "name": "",
          "type": "address"
        },
        {
          "internalType": "uint256",
          "name": "",
          "type": "uint256"
        }
      ],
      "name": "userMap",
      "outputs": [
        {
          "internalType": "string",
          "name": "fullName",
          "type": "string"
        },
        {
          "internalType": "string",
          "name": "emailID",
          "type": "string"
        },
        {
          "internalType": "uint256",
          "name": "mobileNo",
          "type": "uint256"
        }
      ],
      "stateMutability": "view",
      "type": "function",
      "constant": true
    },
    {
      "inputs": [
        {
          "internalType": "string",
          "name": "_fullName",
          "type": "string"
        },
        {
          "internalType": "string",
          "name": "_emailID",
          "type": "string"
        },
        {
          "internalType": "uint256",
          "name": "_mobileNo",
          "type": "uint256"
        }
      ],
      "name": "addUser",
      "outputs": [],
      "stateMutability": "nonpayable",
      "type": "function"
    },
    {
      "inputs": [
        {
          "internalType": "string",
          "name": "_DL_No",
          "type": "string"
        },
        {
          "internalType": "string",
          "name": "_DL_Name",
          "type": "string"
        },
        {
          "internalType": "string",
          "name": "_DL_DOB",
          "type": "string"
        },
        {
          "internalType": "string",
          "name": "_DL_Address",
          "type": "string"
        }
      ],
      "name": "addUserDL",
      "outputs": [],
      "stateMutability": "nonpayable",
      "type": "function"
    },
    {
      "inputs": [
        {
          "internalType": "string",
          "name": "_requestedBy",
          "type": "string"
        },
        {
          "internalType": "string",
          "name": "_DL_No",
          "type": "string"
        },
        {
          "internalType": "string",
          "name": "_DL_Name",
          "type": "string"
        },
        {
          "internalType": "string",
          "name": "_DL_DOB",
          "type": "string"
        },
        {
          "internalType": "string",
          "name": "_DL_Address",
          "type": "string"
        },
        {
          "internalType": "uint8",
          "name": "_DL_OverAll_Status",
          "type": "uint8"
        }
      ],
      "name": "addDLRequest",
      "outputs": [],
      "stateMutability": "nonpayable",
      "type": "function"
    },
    {
      "inputs": [],
      "name": "viewDLRequestLength",
      "outputs": [
        {
          "internalType": "uint256",
          "name": "",
          "type": "uint256"
        }
      ],
      "stateMutability": "view",
      "type": "function",
      "constant": true
    },
    {
      "inputs": [
        {
          "internalType": "uint256",
          "name": "_requestIndex",
          "type": "uint256"
        }
      ],
      "name": "viewDLRequestHeader",
      "outputs": [
        {
          "internalType": "string",
          "name": "",
          "type": "string"
        },
        {
          "internalType": "uint8",
          "name": "",
          "type": "uint8"
        }
      ],
      "stateMutability": "view",
      "type": "function",
      "constant": true
    },
    {
      "inputs": [
        {
          "internalType": "uint256",
          "name": "_requestIndex",
          "type": "uint256"
        }
      ],
      "name": "viewDLRequestDetail",
      "outputs": [
        {
          "internalType": "string",
          "name": "",
          "type": "string"
        },
        {
          "internalType": "string",
          "name": "",
          "type": "string"
        },
        {
          "internalType": "string",
          "name": "",
          "type": "string"
        },
        {
          "internalType": "string",
          "name": "",
          "type": "string"
        },
        {
          "internalType": "string",
          "name": "",
          "type": "string"
        },
        {
          "internalType": "uint8",
          "name": "",
          "type": "uint8"
        }
      ],
      "stateMutability": "view",
      "type": "function",
      "constant": true
    },
    {
      "inputs": [
        {
          "internalType": "uint256",
          "name": "_requestIndex",
          "type": "uint256"
        },
        {
          "internalType": "string",
          "name": "_DL_No",
          "type": "string"
        },
        {
          "internalType": "string",
          "name": "_DL_Name",
          "type": "string"
        },
        {
          "internalType": "string",
          "name": "_DL_DOB",
          "type": "string"
        },
        {
          "internalType": "string",
          "name": "_DL_Address",
          "type": "string"
        },
        {
          "internalType": "uint8",
          "name": "_DL_OverAll_Status",
          "type": "uint8"
        }
      ],
      "name": "updateRequestStatus",
      "outputs": [],
      "stateMutability": "nonpayable",
      "type": "function"
    },
    {
      "inputs": [
        {
          "internalType": "uint256",
          "name": "_userIndex",
          "type": "uint256"
        }
      ],
      "name": "viewUser",
      "outputs": [
        {
          "internalType": "string",
          "name": "",
          "type": "string"
        },
        {
          "internalType": "string",
          "name": "",
          "type": "string"
        },
        {
          "internalType": "uint256",
          "name": "",
          "type": "uint256"
        }
      ],
      "stateMutability": "view",
      "type": "function",
      "constant": true
    },
    {
      "inputs": [
        {
          "internalType": "uint256",
          "name": "_requestIndex",
          "type": "uint256"
        }
      ],
      "name": "viewUserDL",
      "outputs": [
        {
          "internalType": "string",
          "name": "",
          "type": "string"
        },
        {
          "internalType": "string",
          "name": "",
          "type": "string"
        },
        {
          "internalType": "string",
          "name": "",
          "type": "string"
        },
        {
          "internalType": "string",
          "name": "",
          "type": "string"
        },
        {
          "internalType": "string",
          "name": "",
          "type": "string"
        },
        {
          "internalType": "string",
          "name": "",
          "type": "string"
        },
        {
          "internalType": "string",
          "name": "",
          "type": "string"
        },
        {
          "internalType": "string",
          "name": "",
          "type": "string"
        }
      ],
      "stateMutability": "view",
      "type": "function",
      "constant": true
    }
  ],
  "bytecode": "0x608060405234801561001057600080fd5b50326000806101000a81548173ffffffffffffffffffffffffffffffffffffffff021916908373ffffffffffffffffffffffffffffffffffffffff160217905550612e3d806100606000396000f3fe608060405234801561001057600080fd5b50600436106100cf5760003560e01c80637c9b18d71161008c578063964f593711610066578063964f593714610243578063ce606ee01461025f578063cf76d0f11461027d578063ee1476ef146102b2576100cf565b80637c9b18d7146101be5780637d439b44146101f357806382f27c1214610211576100cf565b806301b34298146100d457806303fdf096146100f05780632bc82c66146101235780634644f0391461013f5780634ff922e11461017157806360724c26146101a2575b600080fd5b6100ee60048036038101906100e991906122b7565b6102e9565b005b61010a60048036038101906101059190612464565b61041a565b60405161011a9493929190612523565b60405180910390f35b61013d60048036038101906101389190612584565b610687565b005b61015960048036038101906101549190612464565b61094e565b60405161016893929190612690565b60405180910390f35b61018b600480360381019061018691906126d5565b610aa5565b604051610199929190612711565b60405180910390f35b6101bc60048036038101906101b79190612741565b610ea6565b005b6101d860048036038101906101d391906126d5565b610f8f565b6040516101ea96959493929190612818565b60405180910390f35b6101fb6113b6565b604051610208919061289c565b60405180910390f35b61022b600480360381019061022691906126d5565b611400565b60405161023a93929190612690565b60405180910390f35b61025d600480360381019061025891906128b7565b611642565b005b610267611702565b6040516102749190612951565b60405180910390f35b61029760048036038101906102929190612464565b611726565b6040516102a996959493929190612818565b60405180910390f35b6102cc60048036038101906102c791906126d5565b611a34565b6040516102e098979695949392919061296c565b60405180910390f35b600360003373ffffffffffffffffffffffffffffffffffffffff1673ffffffffffffffffffffffffffffffffffffffff1681526020019081526020016000206040518060c001604052808881526020018781526020018681526020018581526020018481526020018360ff16815250908060018154018082558091505060019003906000526020600020906006020160009091909190915060008201518160000190816103969190612c2e565b5060208201518160010190816103ac9190612c2e565b5060408201518160020190816103c29190612c2e565b5060608201518160030190816103d89190612c2e565b5060808201518160040190816103ee9190612c2e565b5060a08201518160050160006101000a81548160ff021916908360ff1602179055505050505050505050565b6002602052816000526040600020818154811061043657600080fd5b90600052602060002090600402016000915091505080600001805461045a90612a51565b80601f016020809104026020016040519081016040528092919081815260200182805461048690612a51565b80156104d35780601f106104a8576101008083540402835291602001916104d3565b820191906000526020600020905b8154815290600101906020018083116104b657829003601f168201915b5050505050908060010180546104e890612a51565b80601f016020809104026020016040519081016040528092919081815260200182805461051490612a51565b80156105615780601f1061053657610100808354040283529160200191610561565b820191906000526020600020905b81548152906001019060200180831161054457829003601f168201915b50505050509080600201805461057690612a51565b80601f01602080910402602001604051908101604052809291908181526020018280546105a290612a51565b80156105ef5780601f106105c4576101008083540402835291602001916105ef565b820191906000526020600020905b8154815290600101906020018083116105d257829003601f168201915b50505050509080600301805461060490612a51565b80601f016020809104026020016040519081016040528092919081815260200182805461063090612a51565b801561067d5780601f106106525761010080835404028352916020019161067d565b820191906000526020600020905b81548152906001019060200180831161066057829003601f168201915b5050505050905084565b600360003373ffffffffffffffffffffffffffffffffffffffff1673ffffffffffffffffffffffffffffffffffffffff16815260200190815260200160002080549050861061070b576040517f08c379a000000000000000000000000000000000000000000000000000000000815260040161070290612d4c565b60405180910390fd5b84600360003373ffffffffffffffffffffffffffffffffffffffff1673ffffffffffffffffffffffffffffffffffffffff168152602001908152602001600020878154811061075d5761075c612d6c565b5b9060005260206000209060060201600101908161077a9190612c2e565b5083600360003373ffffffffffffffffffffffffffffffffffffffff1673ffffffffffffffffffffffffffffffffffffffff16815260200190815260200160002087815481106107cd576107cc612d6c565b5b906000526020600020906006020160020190816107ea9190612c2e565b5082600360003373ffffffffffffffffffffffffffffffffffffffff1673ffffffffffffffffffffffffffffffffffffffff168152602001908152602001600020878154811061083d5761083c612d6c565b5b9060005260206000209060060201600301908161085a9190612c2e565b5081600360003373ffffffffffffffffffffffffffffffffffffffff1673ffffffffffffffffffffffffffffffffffffffff16815260200190815260200160002087815481106108ad576108ac612d6c565b5b906000526020600020906006020160040190816108ca9190612c2e565b5080600360003373ffffffffffffffffffffffffffffffffffffffff1673ffffffffffffffffffffffffffffffffffffffff168152602001908152602001600020878154811061091d5761091c612d6c565b5b906000526020600020906006020160050160006101000a81548160ff021916908360ff160217905550505050505050565b6001602052816000526040600020818154811061096a57600080fd5b90600052602060002090600302016000915091505080600001805461098e90612a51565b80601f01602080910402602001604051908101604052809291908181526020018280546109ba90612a51565b8015610a075780601f106109dc57610100808354040283529160200191610a07565b820191906000526020600020905b8154815290600101906020018083116109ea57829003601f168201915b505050505090806001018054610a1c90612a51565b80601f0160208091040260200160405190810160405280929190818152602001828054610a4890612a51565b8015610a955780601f10610a6a57610100808354040283529160200191610a95565b820191906000526020600020905b815481529060010190602001808311610a7857829003601f168201915b5050505050908060020154905083565b60606000600360003373ffffffffffffffffffffffffffffffffffffffff1673ffffffffffffffffffffffffffffffffffffffff168152602001908152602001600020805490508310610b2d576040517f08c379a0000000000000000000000000000000000000000000000000000000008152600401610b2490612d4c565b60405180910390fd5b6000600360003373ffffffffffffffffffffffffffffffffffffffff1673ffffffffffffffffffffffffffffffffffffffff1681526020019081526020016000208481548110610b8057610b7f612d6c565b5b90600052602060002090600602016040518060c0016040529081600082018054610ba990612a51565b80601f0160208091040260200160405190810160405280929190818152602001828054610bd590612a51565b8015610c225780601f10610bf757610100808354040283529160200191610c22565b820191906000526020600020905b815481529060010190602001808311610c0557829003601f168201915b50505050508152602001600182018054610c3b90612a51565b80601f0160208091040260200160405190810160405280929190818152602001828054610c6790612a51565b8015610cb45780601f10610c8957610100808354040283529160200191610cb4565b820191906000526020600020905b815481529060010190602001808311610c9757829003601f168201915b50505050508152602001600282018054610ccd90612a51565b80601f0160208091040260200160405190810160405280929190818152602001828054610cf990612a51565b8015610d465780601f10610d1b57610100808354040283529160200191610d46565b820191906000526020600020905b815481529060010190602001808311610d2957829003601f168201915b50505050508152602001600382018054610d5f90612a51565b80601f0160208091040260200160405190810160405280929190818152602001828054610d8b90612a51565b8015610dd85780601f10610dad57610100808354040283529160200191610dd8565b820191906000526020600020905b815481529060010190602001808311610dbb57829003601f168201915b50505050508152602001600482018054610df190612a51565b80601f0160208091040260200160405190810160405280929190818152602001828054610e1d90612a51565b8015610e6a5780601f10610e3f57610100808354040283529160200191610e6a565b820191906000526020600020905b815481529060010190602001808311610e4d57829003601f168201915b505050505081526020016005820160009054906101000a900460ff1660ff1660ff1681525050905080600001518160a001519250925050915091565b600260003373ffffffffffffffffffffffffffffffffffffffff1673ffffffffffffffffffffffffffffffffffffffff16815260200190815260200160002060405180608001604052808681526020018581526020018481526020018381525090806001815401808255809150506001900390600052602060002090600402016000909190919091506000820151816000019081610f449190612c2e565b506020820151816001019081610f5a9190612c2e565b506040820151816002019081610f709190612c2e565b506060820151816003019081610f869190612c2e565b50505050505050565b60608060608060606000600360003373ffffffffffffffffffffffffffffffffffffffff1673ffffffffffffffffffffffffffffffffffffffff16815260200190815260200160002080549050871061101d576040517f08c379a000000000000000000000000000000000000000000000000000000000815260040161101490612d4c565b60405180910390fd5b6000600360003373ffffffffffffffffffffffffffffffffffffffff1673ffffffffffffffffffffffffffffffffffffffff16815260200190815260200160002088815481106110705761106f612d6c565b5b90600052602060002090600602016040518060c001604052908160008201805461109990612a51565b80601f01602080910402602001604051908101604052809291908181526020018280546110c590612a51565b80156111125780601f106110e757610100808354040283529160200191611112565b820191906000526020600020905b8154815290600101906020018083116110f557829003601f168201915b5050505050815260200160018201805461112b90612a51565b80601f016020809104026020016040519081016040528092919081815260200182805461115790612a51565b80156111a45780601f10611179576101008083540402835291602001916111a4565b820191906000526020600020905b81548152906001019060200180831161118757829003601f168201915b505050505081526020016002820180546111bd90612a51565b80601f01602080910402602001604051908101604052809291908181526020018280546111e990612a51565b80156112365780601f1061120b57610100808354040283529160200191611236565b820191906000526020600020905b81548152906001019060200180831161121957829003601f168201915b5050505050815260200160038201805461124f90612a51565b80601f016020809104026020016040519081016040528092919081815260200182805461127b90612a51565b80156112c85780601f1061129d576101008083540402835291602001916112c8565b820191906000526020600020905b8154815290600101906020018083116112ab57829003601f168201915b505050505081526020016004820180546112e190612a51565b80601f016020809104026020016040519081016040528092919081815260200182805461130d90612a51565b801561135a5780601f1061132f5761010080835404028352916020019161135a565b820191906000526020600020905b81548152906001019060200180831161133d57829003601f168201915b505050505081526020016005820160009054906101000a900460ff1660ff1660ff16815250509050806000015181602001518260400151836060015184608001518560a001519650965096509650965096505091939550919395565b6000600360003373ffffffffffffffffffffffffffffffffffffffff1673ffffffffffffffffffffffffffffffffffffffff16815260200190815260200160002080549050905090565b6060806000600160003373ffffffffffffffffffffffffffffffffffffffff1673ffffffffffffffffffffffffffffffffffffffff168152602001908152602001600020805490508410611489576040517f08c379a000000000000000000000000000000000000000000000000000000000815260040161148090612de7565b60405180910390fd5b6000600160003373ffffffffffffffffffffffffffffffffffffffff1673ffffffffffffffffffffffffffffffffffffffff16815260200190815260200160002085815481106114dc576114db612d6c565b5b906000526020600020906003020160405180606001604052908160008201805461150590612a51565b80601f016020809104026020016040519081016040528092919081815260200182805461153190612a51565b801561157e5780601f106115535761010080835404028352916020019161157e565b820191906000526020600020905b81548152906001019060200180831161156157829003601f168201915b5050505050815260200160018201805461159790612a51565b80601f01602080910402602001604051908101604052809291908181526020018280546115c390612a51565b80156116105780601f106115e557610100808354040283529160200191611610565b820191906000526020600020905b8154815290600101906020018083116115f357829003601f168201915b505050505081526020016002820154815250509050806000015181602001518260400151935093509350509193909250565b600160003373ffffffffffffffffffffffffffffffffffffffff1673ffffffffffffffffffffffffffffffffffffffff168152602001908152602001600020604051806060016040528085815260200184815260200183815250908060018154018082558091505060019003906000526020600020906003020160009091909190915060008201518160000190816116da9190612c2e565b5060208201518160010190816116f09190612c2e565b50604082015181600201555050505050565b60008054906101000a900473ffffffffffffffffffffffffffffffffffffffff1681565b6003602052816000526040600020818154811061174257600080fd5b90600052602060002090600602016000915091505080600001805461176690612a51565b80601f016020809104026020016040519081016040528092919081815260200182805461179290612a51565b80156117df5780601f106117b4576101008083540402835291602001916117df565b820191906000526020600020905b8154815290600101906020018083116117c257829003601f168201915b5050505050908060010180546117f490612a51565b80601f016020809104026020016040519081016040528092919081815260200182805461182090612a51565b801561186d5780601f106118425761010080835404028352916020019161186d565b820191906000526020600020905b81548152906001019060200180831161185057829003601f168201915b50505050509080600201805461188290612a51565b80601f01602080910402602001604051908101604052809291908181526020018280546118ae90612a51565b80156118fb5780601f106118d0576101008083540402835291602001916118fb565b820191906000526020600020905b8154815290600101906020018083116118de57829003601f168201915b50505050509080600301805461191090612a51565b80601f016020809104026020016040519081016040528092919081815260200182805461193c90612a51565b80156119895780601f1061195e57610100808354040283529160200191611989565b820191906000526020600020905b81548152906001019060200180831161196c57829003601f168201915b50505050509080600401805461199e90612a51565b80601f01602080910402602001604051908101604052809291908181526020018280546119ca90612a51565b8015611a175780601f106119ec57610100808354040283529160200191611a17565b820191906000526020600020905b8154815290600101906020018083116119fa57829003601f168201915b5050505050908060050160009054906101000a900460ff16905086565b606080606080606080606080600260003373ffffffffffffffffffffffffffffffffffffffff1673ffffffffffffffffffffffffffffffffffffffff168152602001908152602001600020805490508910611ac4576040517f08c379a0000000000000000000000000000000000000000000000000000000008152600401611abb90612d4c565b60405180910390fd5b6000600260003373ffffffffffffffffffffffffffffffffffffffff1673ffffffffffffffffffffffffffffffffffffffff1681526020019081526020016000208a81548110611b1757611b16612d6c565b5b9060005260206000209060040201604051806080016040529081600082018054611b4090612a51565b80601f0160208091040260200160405190810160405280929190818152602001828054611b6c90612a51565b8015611bb95780601f10611b8e57610100808354040283529160200191611bb9565b820191906000526020600020905b815481529060010190602001808311611b9c57829003601f168201915b50505050508152602001600182018054611bd290612a51565b80601f0160208091040260200160405190810160405280929190818152602001828054611bfe90612a51565b8015611c4b5780601f10611c2057610100808354040283529160200191611c4b565b820191906000526020600020905b815481529060010190602001808311611c2e57829003601f168201915b50505050508152602001600282018054611c6490612a51565b80601f0160208091040260200160405190810160405280929190818152602001828054611c9090612a51565b8015611cdd5780601f10611cb257610100808354040283529160200191611cdd565b820191906000526020600020905b815481529060010190602001808311611cc057829003601f168201915b50505050508152602001600382018054611cf690612a51565b80601f0160208091040260200160405190810160405280929190818152602001828054611d2290612a51565b8015611d6f5780601f10611d4457610100808354040283529160200191611d6f565b820191906000526020600020905b815481529060010190602001808311611d5257829003601f168201915b50505050508152505090506000600360003373ffffffffffffffffffffffffffffffffffffffff1673ffffffffffffffffffffffffffffffffffffffff1681526020019081526020016000208b81548110611dcd57611dcc612d6c565b5b90600052602060002090600602016040518060c0016040529081600082018054611df690612a51565b80601f0160208091040260200160405190810160405280929190818152602001828054611e2290612a51565b8015611e6f5780601f10611e4457610100808354040283529160200191611e6f565b820191906000526020600020905b815481529060010190602001808311611e5257829003601f168201915b50505050508152602001600182018054611e8890612a51565b80601f0160208091040260200160405190810160405280929190818152602001828054611eb490612a51565b8015611f015780601f10611ed657610100808354040283529160200191611f01565b820191906000526020600020905b815481529060010190602001808311611ee457829003601f168201915b50505050508152602001600282018054611f1a90612a51565b80601f0160208091040260200160405190810160405280929190818152602001828054611f4690612a51565b8015611f935780601f10611f6857610100808354040283529160200191611f93565b820191906000526020600020905b815481529060010190602001808311611f7657829003601f168201915b50505050508152602001600382018054611fac90612a51565b80601f0160208091040260200160405190810160405280929190818152602001828054611fd890612a51565b80156120255780601f10611ffa57610100808354040283529160200191612025565b820191906000526020600020905b81548152906001019060200180831161200857829003601f168201915b5050505050815260200160048201805461203e90612a51565b80601f016020809104026020016040519081016040528092919081815260200182805461206a90612a51565b80156120b75780601f1061208c576101008083540402835291602001916120b7565b820191906000526020600020905b81548152906001019060200180831161209a57829003601f168201915b505050505081526020016005820160009054906101000a900460ff1660ff1660ff1681525050905080602001518260000151826040015184602001518460600151866040015186608001518860600151995099509950995099509950995099505050919395975091939597565b6000604051905090565b600080fd5b600080fd5b600080fd5b600080fd5b6000601f19601f8301169050919050565b7f4e487b7100000000000000000000000000000000000000000000000000000000600052604160045260246000fd5b61218b82612142565b810181811067ffffffffffffffff821117156121aa576121a9612153565b5b80604052505050565b60006121bd612124565b90506121c98282612182565b919050565b600067ffffffffffffffff8211156121e9576121e8612153565b5b6121f282612142565b9050602081019050919050565b82818337600083830152505050565b600061222161221c846121ce565b6121b3565b90508281526020810184848401111561223d5761223c61213d565b5b6122488482856121ff565b509392505050565b600082601f83011261226557612264612138565b5b813561227584826020860161220e565b91505092915050565b600060ff82169050919050565b6122948161227e565b811461229f57600080fd5b50565b6000813590506122b18161228b565b92915050565b60008060008060008060c087890312156122d4576122d361212e565b5b600087013567ffffffffffffffff8111156122f2576122f1612133565b5b6122fe89828a01612250565b965050602087013567ffffffffffffffff81111561231f5761231e612133565b5b61232b89828a01612250565b955050604087013567ffffffffffffffff81111561234c5761234b612133565b5b61235889828a01612250565b945050606087013567ffffffffffffffff81111561237957612378612133565b5b61238589828a01612250565b935050608087013567ffffffffffffffff8111156123a6576123a5612133565b5b6123b289828a01612250565b92505060a06123c389828a016122a2565b9150509295509295509295565b600073ffffffffffffffffffffffffffffffffffffffff82169050919050565b60006123fb826123d0565b9050919050565b61240b816123f0565b811461241657600080fd5b50565b60008135905061242881612402565b92915050565b6000819050919050565b6124418161242e565b811461244c57600080fd5b50565b60008135905061245e81612438565b92915050565b6000806040838503121561247b5761247a61212e565b5b600061248985828601612419565b925050602061249a8582860161244f565b9150509250929050565b600081519050919050565b600082825260208201905092915050565b60005b838110156124de5780820151818401526020810190506124c3565b60008484015250505050565b60006124f5826124a4565b6124ff81856124af565b935061250f8185602086016124c0565b61251881612142565b840191505092915050565b6000608082019050818103600083015261253d81876124ea565b9050818103602083015261255181866124ea565b9050818103604083015261256581856124ea565b9050818103606083015261257981846124ea565b905095945050505050565b60008060008060008060c087890312156125a1576125a061212e565b5b60006125af89828a0161244f565b965050602087013567ffffffffffffffff8111156125d0576125cf612133565b5b6125dc89828a01612250565b955050604087013567ffffffffffffffff8111156125fd576125fc612133565b5b61260989828a01612250565b945050606087013567ffffffffffffffff81111561262a57612629612133565b5b61263689828a01612250565b935050608087013567ffffffffffffffff81111561265757612656612133565b5b61266389828a01612250565b92505060a061267489828a016122a2565b9150509295509295509295565b61268a8161242e565b82525050565b600060608201905081810360008301526126aa81866124ea565b905081810360208301526126be81856124ea565b90506126cd6040830184612681565b949350505050565b6000602082840312156126eb576126ea61212e565b5b60006126f98482850161244f565b91505092915050565b61270b8161227e565b82525050565b6000604082019050818103600083015261272b81856124ea565b905061273a6020830184612702565b9392505050565b6000806000806080858703121561275b5761275a61212e565b5b600085013567ffffffffffffffff81111561277957612778612133565b5b61278587828801612250565b945050602085013567ffffffffffffffff8111156127a6576127a5612133565b5b6127b287828801612250565b935050604085013567ffffffffffffffff8111156127d3576127d2612133565b5b6127df87828801612250565b925050606085013567ffffffffffffffff811115612800576127ff612133565b5b61280c87828801612250565b91505092959194509250565b600060c082019050818103600083015261283281896124ea565b9050818103602083015261284681886124ea565b9050818103604083015261285a81876124ea565b9050818103606083015261286e81866124ea565b9050818103608083015261288281856124ea565b905061289160a0830184612702565b979650505050505050565b60006020820190506128b16000830184612681565b92915050565b6000806000606084860312156128d0576128cf61212e565b5b600084013567ffffffffffffffff8111156128ee576128ed612133565b5b6128fa86828701612250565b935050602084013567ffffffffffffffff81111561291b5761291a612133565b5b61292786828701612250565b92505060406129388682870161244f565b9150509250925092565b61294b816123f0565b82525050565b60006020820190506129666000830184612942565b92915050565b6000610100820190508181036000830152612987818b6124ea565b9050818103602083015261299b818a6124ea565b905081810360408301526129af81896124ea565b905081810360608301526129c381886124ea565b905081810360808301526129d781876124ea565b905081810360a08301526129eb81866124ea565b905081810360c08301526129ff81856124ea565b905081810360e0830152612a1381846124ea565b90509998505050505050505050565b7f4e487b7100000000000000000000000000000000000000000000000000000000600052602260045260246000fd5b60006002820490506001821680612a6957607f821691505b602082108103612a7c57612a7b612a22565b5b50919050565b60008190508160005260206000209050919050565b60006020601f8301049050919050565b600082821b905092915050565b600060088302612ae47fffffffffffffffffffffffffffffffffffffffffffffffffffffffffffffffff82612aa7565b612aee8683612aa7565b95508019841693508086168417925050509392505050565b6000819050919050565b6000612b2b612b26612b218461242e565b612b06565b61242e565b9050919050565b6000819050919050565b612b4583612b10565b612b59612b5182612b32565b848454612ab4565b825550505050565b600090565b612b6e612b61565b612b79818484612b3c565b505050565b5b81811015612b9d57612b92600082612b66565b600181019050612b7f565b5050565b601f821115612be257612bb381612a82565b612bbc84612a97565b81016020851015612bcb578190505b612bdf612bd785612a97565b830182612b7e565b50505b505050565b600082821c905092915050565b6000612c0560001984600802612be7565b1980831691505092915050565b6000612c1e8383612bf4565b9150826002028217905092915050565b612c37826124a4565b67ffffffffffffffff811115612c5057612c4f612153565b5b612c5a8254612a51565b612c65828285612ba1565b600060209050601f831160018114612c985760008415612c86578287015190505b612c908582612c12565b865550612cf8565b601f198416612ca686612a82565b60005b82811015612cce57848901518255600182019150602085019450602081019050612ca9565b86831015612ceb5784890151612ce7601f891682612bf4565b8355505b6001600288020188555050505b505050505050565b7f496e76616c6964207265717565737420696e6465780000000000000000000000600082015250565b6000612d366015836124af565b9150612d4182612d00565b602082019050919050565b60006020820190508181036000830152612d6581612d29565b9050919050565b7f4e487b7100000000000000000000000000000000000000000000000000000000600052603260045260246000fd5b7f496e76616c6964207573657220696e6465780000000000000000000000000000600082015250565b6000612dd16012836124af565b9150612ddc82612d9b565b602082019050919050565b60006020820190508181036000830152612e0081612dc4565b905091905056fea26469706673582212202df2cfd71667a61bf6eb1eb73c7a819bde809e11438d0d0de6bcb7a7a439712664736f6c63430008130033",
  "immutableReferences": {},
  "source": "// SPDX-License-Identifier: MIT\npragma solidity ^0.8.19;\n\ncontract IdentityManagement {\n    \n    address public contractOwner;\n\n    constructor() {\n        contractOwner = tx.origin;\n    }\n\n    struct UserInfo {\n        string fullName;\n        string emailID;\n        uint256 mobileNo;\n    }\n    \n    struct UserDL {\n        string DL_No;\n        string DL_Name;\n        string DL_DOB;\n        string DL_Address;\n    }\n\n    struct DLRequest {\n        string requestedBy;\n        string DL_No;\n        string DL_Name;\n        string DL_DOB;\n        string DL_Address;\n        uint8 DL_OverAll_Status;\n    }\n\n    mapping(address => UserInfo[]) public userMap;\n    mapping(address => UserDL[]) public userDLMap;\n    mapping(address => DLRequest[]) public DLRequestMap;\n    \n    modifier onlyOwner() {\n        require(msg.sender == contractOwner, \"Only contract owner can call this function\");\n        _;\n    }\n\n    function addUser(string memory _fullName, string memory _emailID, uint256 _mobileNo) external {\n        userMap[msg.sender].push(UserInfo(_fullName, _emailID, _mobileNo));\n    }\n\n    function addUserDL(string memory _DL_No, string memory _DL_Name, string memory _DL_DOB, string memory _DL_Address) external {\n        userDLMap[msg.sender].push(UserDL(_DL_No, _DL_Name, _DL_DOB, _DL_Address));\n    }\n\n    function addDLRequest(string memory _requestedBy, string memory _DL_No, string memory _DL_Name, string memory _DL_DOB, string memory _DL_Address, uint8 _DL_OverAll_Status) external {\n        DLRequestMap[msg.sender].push(DLRequest(_requestedBy, _DL_No, _DL_Name, _DL_DOB, _DL_Address, _DL_OverAll_Status));\n    }\n\n    function viewDLRequestLength() external view returns (uint256) {\n        return DLRequestMap[msg.sender].length;\n    }\n\n    function viewDLRequestHeader(uint256 _requestIndex) external view returns (string memory, uint8) {\n        require(_requestIndex < DLRequestMap[msg.sender].length, \"Invalid request index\");\n        DLRequest memory thisDLRequest = DLRequestMap[msg.sender][_requestIndex];\n        return (thisDLRequest.requestedBy, thisDLRequest.DL_OverAll_Status);\n    }\n    \n    function viewDLRequestDetail(uint256 _requestIndex) external view returns (string memory, string memory, string memory, string memory, string memory, uint8) {\n        require(_requestIndex < DLRequestMap[msg.sender].length, \"Invalid request index\");\n        DLRequest memory thisDLRequest = DLRequestMap[msg.sender][_requestIndex];\n        return (thisDLRequest.requestedBy, thisDLRequest.DL_No, thisDLRequest.DL_Name, thisDLRequest.DL_DOB, thisDLRequest.DL_Address, thisDLRequest.DL_OverAll_Status);\n    }\n\n    function updateRequestStatus(uint256 _requestIndex, string memory _DL_No, string memory _DL_Name, string memory _DL_DOB, string memory _DL_Address, uint8 _DL_OverAll_Status) external {\n        require(_requestIndex < DLRequestMap[msg.sender].length, \"Invalid request index\");\n        DLRequestMap[msg.sender][_requestIndex].DL_No = _DL_No;\n        DLRequestMap[msg.sender][_requestIndex].DL_Name = _DL_Name;\n        DLRequestMap[msg.sender][_requestIndex].DL_DOB = _DL_DOB;\n        DLRequestMap[msg.sender][_requestIndex].DL_Address = _DL_Address;\n        DLRequestMap[msg.sender][_requestIndex].DL_OverAll_Status = _DL_OverAll_Status;\n    }\n\n    function viewUser(uint256 _userIndex) external view returns (string memory, string memory, uint256) {\n        require(_userIndex < userMap[msg.sender].length, \"Invalid user index\");\n        UserInfo memory thisUser = userMap[msg.sender][_userIndex];\n        return (thisUser.fullName, thisUser.emailID, thisUser.mobileNo);\n    }\n\n    function viewUserDL(uint256 _requestIndex) external view returns (string memory, string memory, string memory, string memory,string memory,string memory,string memory,string memory) {\n    require(_requestIndex < userDLMap[msg.sender].length, \"Invalid request index\");\n    UserDL memory thisUserDL = userDLMap[msg.sender][_requestIndex];\n    DLRequest memory thisDLRequest = DLRequestMap[msg.sender][_requestIndex];\n    return (thisDLRequest.DL_No, thisUserDL.DL_No, thisDLRequest.DL_Name, thisUserDL.DL_Name, thisDLRequest.DL_DOB, thisUserDL.DL_DOB, thisDLRequest.DL_Address, thisUserDL.DL_Address);\n}\n}",
  "sourcePath": "D:\\Engineering\\Blockchain - Project\\Code\\Identity-Management-master\\Identity-Management-master\\Identity-Management-master\\contracts\\IdentityManagement.sol",
  "compiler": {
    "name": "solc",
    "version": "0.8.19+commit.7dd6d404.Emscripten.clang"
  },
  "schemaVersion": "3.4.11",
  "updatedAt": "2024-05-06T05:17:04.145Z",
  "networkType": "ethereum",
  "devdoc": {
    "kind": "dev",
    "methods": {},
    "version": 1
  },
  "userdoc": {
    "kind": "user",
    "methods": {},
    "version": 1
  }
}